{
  "_format": "hh-sol-artifact-1",
  "contractName": "Token",
  "sourceName": "contracts/Token.sol",
  "abi": [
    {
      "inputs": [],
      "stateMutability": "nonpayable",
      "type": "constructor"
    },
    {
      "inputs": [
        {
          "internalType": "address",
          "name": "sender",
          "type": "address"
        },
        {
          "internalType": "uint256",
          "name": "tokenId",
          "type": "uint256"
        },
        {
          "internalType": "address",
          "name": "owner",
          "type": "address"
        }
      ],
      "name": "ERC721IncorrectOwner",
      "type": "error"
    },
    {
      "inputs": [
        {
          "internalType": "address",
          "name": "operator",
          "type": "address"
        },
        {
          "internalType": "uint256",
          "name": "tokenId",
          "type": "uint256"
        }
      ],
      "name": "ERC721InsufficientApproval",
      "type": "error"
    },
    {
      "inputs": [
        {
          "internalType": "address",
          "name": "approver",
          "type": "address"
        }
      ],
      "name": "ERC721InvalidApprover",
      "type": "error"
    },
    {
      "inputs": [
        {
          "internalType": "address",
          "name": "operator",
          "type": "address"
        }
      ],
      "name": "ERC721InvalidOperator",
      "type": "error"
    },
    {
      "inputs": [
        {
          "internalType": "address",
          "name": "owner",
          "type": "address"
        }
      ],
      "name": "ERC721InvalidOwner",
      "type": "error"
    },
    {
      "inputs": [
        {
          "internalType": "address",
          "name": "receiver",
          "type": "address"
        }
      ],
      "name": "ERC721InvalidReceiver",
      "type": "error"
    },
    {
      "inputs": [
        {
          "internalType": "address",
          "name": "sender",
          "type": "address"
        }
      ],
      "name": "ERC721InvalidSender",
      "type": "error"
    },
    {
      "inputs": [
        {
          "internalType": "uint256",
          "name": "tokenId",
          "type": "uint256"
        }
      ],
      "name": "ERC721NonexistentToken",
      "type": "error"
    },
    {
      "inputs": [
        {
          "internalType": "address",
          "name": "owner",
          "type": "address"
        }
      ],
      "name": "OwnableInvalidOwner",
      "type": "error"
    },
    {
      "inputs": [
        {
          "internalType": "address",
          "name": "account",
          "type": "address"
        }
      ],
      "name": "OwnableUnauthorizedAccount",
      "type": "error"
    },
    {
      "anonymous": false,
      "inputs": [
        {
          "indexed": true,
          "internalType": "address",
          "name": "owner",
          "type": "address"
        },
        {
          "indexed": true,
          "internalType": "address",
          "name": "approved",
          "type": "address"
        },
        {
          "indexed": true,
          "internalType": "uint256",
          "name": "tokenId",
          "type": "uint256"
        }
      ],
      "name": "Approval",
      "type": "event"
    },
    {
      "anonymous": false,
      "inputs": [
        {
          "indexed": true,
          "internalType": "address",
          "name": "owner",
          "type": "address"
        },
        {
          "indexed": true,
          "internalType": "address",
          "name": "operator",
          "type": "address"
        },
        {
          "indexed": false,
          "internalType": "bool",
          "name": "approved",
          "type": "bool"
        }
      ],
      "name": "ApprovalForAll",
      "type": "event"
    },
    {
      "anonymous": false,
      "inputs": [
        {
          "indexed": false,
          "internalType": "uint256",
          "name": "_fromTokenId",
          "type": "uint256"
        },
        {
          "indexed": false,
          "internalType": "uint256",
          "name": "_toTokenId",
          "type": "uint256"
        }
      ],
      "name": "BatchMetadataUpdate",
      "type": "event"
    },
    {
      "anonymous": false,
      "inputs": [
        {
          "indexed": false,
          "internalType": "uint256",
          "name": "_tokenId",
          "type": "uint256"
        }
      ],
      "name": "MetadataUpdate",
      "type": "event"
    },
    {
      "anonymous": false,
      "inputs": [
        {
          "indexed": true,
          "internalType": "address",
          "name": "previousOwner",
          "type": "address"
        },
        {
          "indexed": true,
          "internalType": "address",
          "name": "newOwner",
          "type": "address"
        }
      ],
      "name": "OwnershipTransferred",
      "type": "event"
    },
    {
      "anonymous": false,
      "inputs": [
        {
          "indexed": true,
          "internalType": "address",
          "name": "from",
          "type": "address"
        },
        {
          "indexed": true,
          "internalType": "address",
          "name": "to",
          "type": "address"
        },
        {
          "indexed": true,
          "internalType": "uint256",
          "name": "tokenId",
          "type": "uint256"
        }
      ],
      "name": "Transfer",
      "type": "event"
    },
    {
      "inputs": [
        {
          "internalType": "address",
          "name": "to",
          "type": "address"
        },
        {
          "internalType": "uint256",
          "name": "tokenId",
          "type": "uint256"
        }
      ],
      "name": "approve",
      "outputs": [],
      "stateMutability": "nonpayable",
      "type": "function"
    },
    {
      "inputs": [
        {
          "internalType": "address",
          "name": "owner",
          "type": "address"
        }
      ],
      "name": "balanceOf",
      "outputs": [
        {
          "internalType": "uint256",
          "name": "",
          "type": "uint256"
        }
      ],
      "stateMutability": "view",
      "type": "function"
    },
    {
      "inputs": [
        {
          "internalType": "uint256",
          "name": "tokenId",
          "type": "uint256"
        }
      ],
      "name": "getApproved",
      "outputs": [
        {
          "internalType": "address",
          "name": "",
          "type": "address"
        }
      ],
      "stateMutability": "view",
      "type": "function"
    },
    {
      "inputs": [
        {
          "internalType": "address",
          "name": "owner",
          "type": "address"
        },
        {
          "internalType": "address",
          "name": "operator",
          "type": "address"
        }
      ],
      "name": "isApprovedForAll",
      "outputs": [
        {
          "internalType": "bool",
          "name": "",
          "type": "bool"
        }
      ],
      "stateMutability": "view",
      "type": "function"
    },
    {
      "inputs": [
        {
          "internalType": "address",
          "name": "_user",
          "type": "address"
        },
        {
          "internalType": "address",
          "name": "_companyId",
          "type": "address"
        },
        {
          "internalType": "uint256",
          "name": "_serviceId",
          "type": "uint256"
        },
        {
          "internalType": "string",
          "name": "_metadataURI",
          "type": "string"
        }
      ],
      "name": "mintToken",
      "outputs": [],
      "stateMutability": "nonpayable",
      "type": "function"
    },
    {
      "inputs": [],
      "name": "name",
      "outputs": [
        {
          "internalType": "string",
          "name": "",
          "type": "string"
        }
      ],
      "stateMutability": "view",
      "type": "function"
    },
    {
      "inputs": [],
      "name": "owner",
      "outputs": [
        {
          "internalType": "address",
          "name": "",
          "type": "address"
        }
      ],
      "stateMutability": "view",
      "type": "function"
    },
    {
      "inputs": [
        {
          "internalType": "uint256",
          "name": "tokenId",
          "type": "uint256"
        }
      ],
      "name": "ownerOf",
      "outputs": [
        {
          "internalType": "address",
          "name": "",
          "type": "address"
        }
      ],
      "stateMutability": "view",
      "type": "function"
    },
    {
      "inputs": [
        {
          "internalType": "address",
          "name": "tokenOwner",
          "type": "address"
        }
      ],
      "name": "ownerOfTokenIds",
      "outputs": [
        {
          "internalType": "uint256[]",
          "name": "",
          "type": "uint256[]"
        }
      ],
      "stateMutability": "view",
      "type": "function"
    },
    {
      "inputs": [],
      "name": "renounceOwnership",
      "outputs": [],
      "stateMutability": "nonpayable",
      "type": "function"
    },
    {
      "inputs": [
        {
          "internalType": "address",
          "name": "from",
          "type": "address"
        },
        {
          "internalType": "address",
          "name": "to",
          "type": "address"
        },
        {
          "internalType": "uint256",
          "name": "tokenId",
          "type": "uint256"
        }
      ],
      "name": "safeTransferFrom",
      "outputs": [],
      "stateMutability": "nonpayable",
      "type": "function"
    },
    {
      "inputs": [
        {
          "internalType": "address",
          "name": "from",
          "type": "address"
        },
        {
          "internalType": "address",
          "name": "to",
          "type": "address"
        },
        {
          "internalType": "uint256",
          "name": "tokenId",
          "type": "uint256"
        },
        {
          "internalType": "bytes",
          "name": "data",
          "type": "bytes"
        }
      ],
      "name": "safeTransferFrom",
      "outputs": [],
      "stateMutability": "nonpayable",
      "type": "function"
    },
    {
      "inputs": [
        {
          "internalType": "address",
          "name": "operator",
          "type": "address"
        },
        {
          "internalType": "bool",
          "name": "approved",
          "type": "bool"
        }
      ],
      "name": "setApprovalForAll",
      "outputs": [],
      "stateMutability": "nonpayable",
      "type": "function"
    },
    {
      "inputs": [
        {
          "internalType": "bytes4",
          "name": "interfaceId",
          "type": "bytes4"
        }
      ],
      "name": "supportsInterface",
      "outputs": [
        {
          "internalType": "bool",
          "name": "",
          "type": "bool"
        }
      ],
      "stateMutability": "view",
      "type": "function"
    },
    {
      "inputs": [],
      "name": "symbol",
      "outputs": [
        {
          "internalType": "string",
          "name": "",
          "type": "string"
        }
      ],
      "stateMutability": "view",
      "type": "function"
    },
    {
      "inputs": [
        {
          "internalType": "uint256",
          "name": "tokenId",
          "type": "uint256"
        }
      ],
      "name": "tokenURI",
      "outputs": [
        {
          "internalType": "string",
          "name": "",
          "type": "string"
        }
      ],
      "stateMutability": "view",
      "type": "function"
    },
    {
      "inputs": [
        {
          "internalType": "address",
          "name": "from",
          "type": "address"
        },
        {
          "internalType": "address",
          "name": "to",
          "type": "address"
        },
        {
          "internalType": "uint256",
          "name": "tokenId",
          "type": "uint256"
        }
      ],
      "name": "transferFrom",
      "outputs": [],
      "stateMutability": "nonpayable",
      "type": "function"
    },
    {
      "inputs": [
        {
          "internalType": "address",
          "name": "newOwner",
          "type": "address"
        }
      ],
      "name": "transferOwnership",
      "outputs": [],
      "stateMutability": "nonpayable",
      "type": "function"
    }
  ],
  "bytecode": "0x60806040526000600960006101000a81548160ff021916908360ff1602179055506001600960016101000a81548160ff021916908360ff1602179055506002600960026101000a81548160ff021916908360ff1602179055503480156200006557600080fd5b50336040518060400160405280601781526020017f536f756c20426f756e642052657669657720546f6b656e0000000000000000008152506040518060400160405280600481526020017f53425254000000000000000000000000000000000000000000000000000000008152508160009081620000e49190620004ce565b508060019081620000f69190620004ce565b505050600073ffffffffffffffffffffffffffffffffffffffff168173ffffffffffffffffffffffffffffffffffffffff16036200016e5760006040517f1e4fbdf7000000000000000000000000000000000000000000000000000000008152600401620001659190620005fa565b60405180910390fd5b6200017f816200018e60201b60201c565b50600060088190555062000617565b6000600760009054906101000a900473ffffffffffffffffffffffffffffffffffffffff16905081600760006101000a81548173ffffffffffffffffffffffffffffffffffffffff021916908373ffffffffffffffffffffffffffffffffffffffff1602179055508173ffffffffffffffffffffffffffffffffffffffff168173ffffffffffffffffffffffffffffffffffffffff167f8be0079c531659141344cd1fd0a4f28419497f9722a3daafe3b4186f6b6457e060405160405180910390a35050565b600081519050919050565b7f4e487b7100000000000000000000000000000000000000000000000000000000600052604160045260246000fd5b7f4e487b7100000000000000000000000000000000000000000000000000000000600052602260045260246000fd5b60006002820490506001821680620002d657607f821691505b602082108103620002ec57620002eb6200028e565b5b50919050565b60008190508160005260206000209050919050565b60006020601f8301049050919050565b600082821b905092915050565b600060088302620003567fffffffffffffffffffffffffffffffffffffffffffffffffffffffffffffffff8262000317565b62000362868362000317565b95508019841693508086168417925050509392505050565b6000819050919050565b6000819050919050565b6000620003af620003a9620003a3846200037a565b62000384565b6200037a565b9050919050565b6000819050919050565b620003cb836200038e565b620003e3620003da82620003b6565b84845462000324565b825550505050565b600090565b620003fa620003eb565b62000407818484620003c0565b505050565b5b818110156200042f5762000423600082620003f0565b6001810190506200040d565b5050565b601f8211156200047e576200044881620002f2565b620004538462000307565b8101602085101562000463578190505b6200047b620004728562000307565b8301826200040c565b50505b505050565b600082821c905092915050565b6000620004a36000198460080262000483565b1980831691505092915050565b6000620004be838362000490565b9150826002028217905092915050565b620004d98262000254565b67ffffffffffffffff811115620004f557620004f46200025f565b5b620005018254620002bd565b6200050e82828562000433565b600060209050601f83116001811462000546576000841562000531578287015190505b6200053d8582620004b0565b865550620005ad565b601f1984166200055686620002f2565b60005b82811015620005805784890151825560018201915060208501945060208101905062000559565b86831015620005a057848901516200059c601f89168262000490565b8355505b6001600288020188555050505b505050505050565b600073ffffffffffffffffffffffffffffffffffffffff82169050919050565b6000620005e282620005b5565b9050919050565b620005f481620005d5565b82525050565b6000602082019050620006116000830184620005e9565b92915050565b612c0680620006276000396000f3fe608060405234801561001057600080fd5b50600436106101165760003560e01c8063759f89c2116100a2578063b88d4fde11610071578063b88d4fde146102cb578063c87b56dd146102e7578063ca8a7d5e14610317578063e985e9c514610347578063f2fde38b1461037757610116565b8063759f89c2146102575780638da5cb5b1461027357806395d89b4114610291578063a22cb465146102af57610116565b806323b872dd116100e957806323b872dd146101b557806342842e0e146101d15780636352211e146101ed57806370a082311461021d578063715018a61461024d57610116565b806301ffc9a71461011b57806306fdde031461014b578063081812fc14610169578063095ea7b314610199575b600080fd5b61013560048036038101906101309190611ce3565b610393565b6040516101429190611d2b565b60405180910390f35b6101536103f4565b6040516101609190611dd6565b60405180910390f35b610183600480360381019061017e9190611e2e565b610486565b6040516101909190611e9c565b60405180910390f35b6101b360048036038101906101ae9190611ee3565b6104a2565b005b6101cf60048036038101906101ca9190611f23565b6104e7565b005b6101eb60048036038101906101e69190611f23565b61052d565b005b61020760048036038101906102029190611e2e565b61054d565b6040516102149190611e9c565b60405180910390f35b61023760048036038101906102329190611f76565b61055f565b6040516102449190611fb2565b60405180910390f35b610255610619565b005b610271600480360381019061026c9190612102565b61062d565b005b61027b6108fa565b6040516102889190611e9c565b60405180910390f35b610299610924565b6040516102a69190611dd6565b60405180910390f35b6102c960048036038101906102c491906121b1565b6109b6565b005b6102e560048036038101906102e09190612292565b6109fb565b005b61030160048036038101906102fc9190611e2e565b610a18565b60405161030e9190611dd6565b60405180910390f35b610331600480360381019061032c9190611f76565b610b2b565b60405161033e91906123d3565b60405180910390f35b610361600480360381019061035c91906123f5565b610c18565b60405161036e9190611d2b565b60405180910390f35b610391600480360381019061038c9190611f76565b610cac565b005b6000634906490660e01b7bffffffffffffffffffffffffffffffffffffffffffffffffffffffff1916827bffffffffffffffffffffffffffffffffffffffffffffffffffffffff191614806103ed57506103ec82610d32565b5b9050919050565b60606000805461040390612464565b80601f016020809104026020016040519081016040528092919081815260200182805461042f90612464565b801561047c5780601f106104515761010080835404028352916020019161047c565b820191906000526020600020905b81548152906001019060200180831161045f57829003601f168201915b5050505050905090565b600061049182610e14565b5061049b82610e9c565b9050919050565b60006104e3576040517f08c379a00000000000000000000000000000000000000000000000000000000081526004016104da906124e1565b60405180910390fd5b5050565b6000610528576040517f08c379a000000000000000000000000000000000000000000000000000000000815260040161051f906124e1565b60405180910390fd5b505050565b610548838383604051806020016040528060008152506109fb565b505050565b600061055882610e14565b9050919050565b60008073ffffffffffffffffffffffffffffffffffffffff168273ffffffffffffffffffffffffffffffffffffffff16036105d25760006040517f89c62b640000000000000000000000000000000000000000000000000000000081526004016105c99190611e9c565b60405180910390fd5b600360008373ffffffffffffffffffffffffffffffffffffffff1673ffffffffffffffffffffffffffffffffffffffff168152602001908152602001600020549050919050565b610621610ed9565b61062b6000610f60565b565b600061063a858585611026565b9050600a600082815260200190815260200160002060009054906101000a900460ff161561069d576040517f08c379a000000000000000000000000000000000000000000000000000000000815260040161069490612573565b60405180910390fd5b600960029054906101000a900460ff1660ff16600b60008773ffffffffffffffffffffffffffffffffffffffff1673ffffffffffffffffffffffffffffffffffffffff16815260200190815260200160002060009054906101000a900460ff1660ff1603610740576040517f08c379a0000000000000000000000000000000000000000000000000000000008152600401610737906125df565b60405180910390fd5b600960019054906101000a900460ff1660ff16600b60008673ffffffffffffffffffffffffffffffffffffffff1673ffffffffffffffffffffffffffffffffffffffff16815260200190815260200160002060009054906101000a900460ff1660ff16036107e3576040517f08c379a00000000000000000000000000000000000000000000000000000000081526004016107da9061264b565b60405180910390fd5b60006107ed61105f565b905060006107f961105f565b9050610805878361107d565b61080f828561109b565b600960019054906101000a900460ff16600b60008973ffffffffffffffffffffffffffffffffffffffff1673ffffffffffffffffffffffffffffffffffffffff16815260200190815260200160002060006101000a81548160ff021916908360ff160217905550610880868261107d565b61088a818561109b565b600960029054906101000a900460ff16600b60008873ffffffffffffffffffffffffffffffffffffffff1673ffffffffffffffffffffffffffffffffffffffff16815260200190815260200160002060006101000a81548160ff021916908360ff16021790555050505050505050565b6000600760009054906101000a900473ffffffffffffffffffffffffffffffffffffffff16905090565b60606001805461093390612464565b80601f016020809104026020016040519081016040528092919081815260200182805461095f90612464565b80156109ac5780601f10610981576101008083540402835291602001916109ac565b820191906000526020600020905b81548152906001019060200180831161098f57829003601f168201915b5050505050905090565b60006109f7576040517f08c379a00000000000000000000000000000000000000000000000000000000081526004016109ee906124e1565b60405180910390fd5b5050565b610a068484846104e7565b610a12848484846110f7565b50505050565b6060610a2382610e14565b506000600660008481526020019081526020016000208054610a4490612464565b80601f0160208091040260200160405190810160405280929190818152602001828054610a7090612464565b8015610abd5780601f10610a9257610100808354040283529160200191610abd565b820191906000526020600020905b815481529060010190602001808311610aa057829003601f168201915b505050505090506000610ace6112ae565b90506000815103610ae3578192505050610b26565b600082511115610b18578082604051602001610b009291906126a7565b60405160208183030381529060405292505050610b26565b610b21846112c5565b925050505b919050565b60606000610b388361055f565b67ffffffffffffffff811115610b5157610b50611fd7565b5b604051908082528060200260200182016040528015610b7f5781602001602082028036833780820191505090505b5090506000805b600854811015610c0d578473ffffffffffffffffffffffffffffffffffffffff16610bb08261054d565b73ffffffffffffffffffffffffffffffffffffffff1603610bfa5780838381518110610bdf57610bde6126cb565b5b6020026020010181815250508180610bf690612729565b9250505b8080610c0590612729565b915050610b86565b508192505050919050565b6000600560008473ffffffffffffffffffffffffffffffffffffffff1673ffffffffffffffffffffffffffffffffffffffff16815260200190815260200160002060008373ffffffffffffffffffffffffffffffffffffffff1673ffffffffffffffffffffffffffffffffffffffff16815260200190815260200160002060009054906101000a900460ff16905092915050565b610cb4610ed9565b600073ffffffffffffffffffffffffffffffffffffffff168173ffffffffffffffffffffffffffffffffffffffff1603610d265760006040517f1e4fbdf7000000000000000000000000000000000000000000000000000000008152600401610d1d9190611e9c565b60405180910390fd5b610d2f81610f60565b50565b60007f80ac58cd000000000000000000000000000000000000000000000000000000007bffffffffffffffffffffffffffffffffffffffffffffffffffffffff1916827bffffffffffffffffffffffffffffffffffffffffffffffffffffffff19161480610dfd57507f5b5e139f000000000000000000000000000000000000000000000000000000007bffffffffffffffffffffffffffffffffffffffffffffffffffffffff1916827bffffffffffffffffffffffffffffffffffffffffffffffffffffffff1916145b80610e0d5750610e0c8261132e565b5b9050919050565b600080610e2083611398565b9050600073ffffffffffffffffffffffffffffffffffffffff168173ffffffffffffffffffffffffffffffffffffffff1603610e9357826040517f7e273289000000000000000000000000000000000000000000000000000000008152600401610e8a9190611fb2565b60405180910390fd5b80915050919050565b60006004600083815260200190815260200160002060009054906101000a900473ffffffffffffffffffffffffffffffffffffffff169050919050565b610ee16113d5565b73ffffffffffffffffffffffffffffffffffffffff16610eff6108fa565b73ffffffffffffffffffffffffffffffffffffffff1614610f5e57610f226113d5565b6040517f118cdaa7000000000000000000000000000000000000000000000000000000008152600401610f559190611e9c565b60405180910390fd5b565b6000600760009054906101000a900473ffffffffffffffffffffffffffffffffffffffff16905081600760006101000a81548173ffffffffffffffffffffffffffffffffffffffff021916908373ffffffffffffffffffffffffffffffffffffffff1602179055508173ffffffffffffffffffffffffffffffffffffffff168173ffffffffffffffffffffffffffffffffffffffff167f8be0079c531659141344cd1fd0a4f28419497f9722a3daafe3b4186f6b6457e060405160405180910390a35050565b600083838360405160200161103d939291906127da565b6040516020818303038152906040528051906020012060001c90509392505050565b60006008600081548092919061107490612729565b91905055905090565b6110978282604051806020016040528060008152506113dd565b5050565b806006600084815260200190815260200160002090816110bb91906129c3565b507ff8e1a15aba9398e019f0b49df1a4fde98ee17ae345cb5f6b5e2c27f5033e8ce7826040516110eb9190611fb2565b60405180910390a15050565b60008373ffffffffffffffffffffffffffffffffffffffff163b11156112a8578273ffffffffffffffffffffffffffffffffffffffff1663150b7a0261113b6113d5565b8685856040518563ffffffff1660e01b815260040161115d9493929190612aea565b6020604051808303816000875af192505050801561119957506040513d601f19601f820116820180604052508101906111969190612b4b565b60015b61121d573d80600081146111c9576040519150601f19603f3d011682016040523d82523d6000602084013e6111ce565b606091505b50600081510361121557836040517f64a0ae9200000000000000000000000000000000000000000000000000000000815260040161120c9190611e9c565b60405180910390fd5b805181602001fd5b63150b7a0260e01b7bffffffffffffffffffffffffffffffffffffffffffffffffffffffff1916817bffffffffffffffffffffffffffffffffffffffffffffffffffffffff1916146112a657836040517f64a0ae9200000000000000000000000000000000000000000000000000000000815260040161129d9190611e9c565b60405180910390fd5b505b50505050565b606060405180602001604052806000815250905090565b60606112d082610e14565b5060006112db6112ae565b905060008151116112fb5760405180602001604052806000815250611326565b80611305846113f9565b6040516020016113169291906126a7565b6040516020818303038152906040525b915050919050565b60007f01ffc9a7000000000000000000000000000000000000000000000000000000007bffffffffffffffffffffffffffffffffffffffffffffffffffffffff1916827bffffffffffffffffffffffffffffffffffffffffffffffffffffffff1916149050919050565b60006002600083815260200190815260200160002060009054906101000a900473ffffffffffffffffffffffffffffffffffffffff169050919050565b600033905090565b6113e783836114c7565b6113f460008484846110f7565b505050565b606060006001611408846115c0565b01905060008167ffffffffffffffff81111561142757611426611fd7565b5b6040519080825280601f01601f1916602001820160405280156114595781602001600182028036833780820191505090505b509050600082602001820190505b6001156114bc578080600190039150507f3031323334353637383961626364656600000000000000000000000000000000600a86061a8153600a85816114b0576114af612b78565b5b04945060008503611467575b819350505050919050565b600073ffffffffffffffffffffffffffffffffffffffff168273ffffffffffffffffffffffffffffffffffffffff16036115395760006040517f64a0ae920000000000000000000000000000000000000000000000000000000081526004016115309190611e9c565b60405180910390fd5b600061154783836000611713565b9050600073ffffffffffffffffffffffffffffffffffffffff168173ffffffffffffffffffffffffffffffffffffffff16146115bb5760006040517f73c6ac6e0000000000000000000000000000000000000000000000000000000081526004016115b29190611e9c565b60405180910390fd5b505050565b600080600090507a184f03e93ff9f4daa797ed6e38ed64bf6a1f010000000000000000831061161e577a184f03e93ff9f4daa797ed6e38ed64bf6a1f010000000000000000838161161457611613612b78565b5b0492506040810190505b6d04ee2d6d415b85acef8100000000831061165b576d04ee2d6d415b85acef8100000000838161165157611650612b78565b5b0492506020810190505b662386f26fc10000831061168a57662386f26fc1000083816116805761167f612b78565b5b0492506010810190505b6305f5e10083106116b3576305f5e10083816116a9576116a8612b78565b5b0492506008810190505b61271083106116d85761271083816116ce576116cd612b78565b5b0492506004810190505b606483106116fb57606483816116f1576116f0612b78565b5b0492506002810190505b600a831061170a576001810190505b80915050919050565b60008061171f84611398565b9050600073ffffffffffffffffffffffffffffffffffffffff168373ffffffffffffffffffffffffffffffffffffffff16146117615761176081848661192d565b5b600073ffffffffffffffffffffffffffffffffffffffff168173ffffffffffffffffffffffffffffffffffffffff16146117f2576117a36000856000806119f1565b6001600360008373ffffffffffffffffffffffffffffffffffffffff1673ffffffffffffffffffffffffffffffffffffffff168152602001908152602001600020600082825403925050819055505b600073ffffffffffffffffffffffffffffffffffffffff168573ffffffffffffffffffffffffffffffffffffffff1614611875576001600360008773ffffffffffffffffffffffffffffffffffffffff1673ffffffffffffffffffffffffffffffffffffffff168152602001908152602001600020600082825401925050819055505b846002600086815260200190815260200160002060006101000a81548173ffffffffffffffffffffffffffffffffffffffff021916908373ffffffffffffffffffffffffffffffffffffffff160217905550838573ffffffffffffffffffffffffffffffffffffffff168273ffffffffffffffffffffffffffffffffffffffff167fddf252ad1be2c89b69c2b068fc378daa952ba7f163c4a11628f55a4df523b3ef60405160405180910390a4809150509392505050565b611938838383611bb6565b6119ec57600073ffffffffffffffffffffffffffffffffffffffff168373ffffffffffffffffffffffffffffffffffffffff16036119ad57806040517f7e2732890000000000000000000000000000000000000000000000000000000081526004016119a49190611fb2565b60405180910390fd5b81816040517f177e802f0000000000000000000000000000000000000000000000000000000081526004016119e3929190612ba7565b60405180910390fd5b505050565b8080611a2a5750600073ffffffffffffffffffffffffffffffffffffffff168273ffffffffffffffffffffffffffffffffffffffff1614155b15611b5e576000611a3a84610e14565b9050600073ffffffffffffffffffffffffffffffffffffffff168373ffffffffffffffffffffffffffffffffffffffff1614158015611aa557508273ffffffffffffffffffffffffffffffffffffffff168173ffffffffffffffffffffffffffffffffffffffff1614155b8015611ab85750611ab68184610c18565b155b15611afa57826040517fa9fbf51f000000000000000000000000000000000000000000000000000000008152600401611af19190611e9c565b60405180910390fd5b8115611b5c57838573ffffffffffffffffffffffffffffffffffffffff168273ffffffffffffffffffffffffffffffffffffffff167f8c5be1e5ebec7d5bd14f71427d1e84f3dd0314c0f7b2291e5b200ac8c7c3b92560405160405180910390a45b505b836004600085815260200190815260200160002060006101000a81548173ffffffffffffffffffffffffffffffffffffffff021916908373ffffffffffffffffffffffffffffffffffffffff16021790555050505050565b60008073ffffffffffffffffffffffffffffffffffffffff168373ffffffffffffffffffffffffffffffffffffffff1614158015611c6e57508273ffffffffffffffffffffffffffffffffffffffff168473ffffffffffffffffffffffffffffffffffffffff161480611c2f5750611c2e8484610c18565b5b80611c6d57508273ffffffffffffffffffffffffffffffffffffffff16611c5583610e9c565b73ffffffffffffffffffffffffffffffffffffffff16145b5b90509392505050565b6000604051905090565b600080fd5b600080fd5b60007fffffffff0000000000000000000000000000000000000000000000000000000082169050919050565b611cc081611c8b565b8114611ccb57600080fd5b50565b600081359050611cdd81611cb7565b92915050565b600060208284031215611cf957611cf8611c81565b5b6000611d0784828501611cce565b91505092915050565b60008115159050919050565b611d2581611d10565b82525050565b6000602082019050611d406000830184611d1c565b92915050565b600081519050919050565b600082825260208201905092915050565b60005b83811015611d80578082015181840152602081019050611d65565b60008484015250505050565b6000601f19601f8301169050919050565b6000611da882611d46565b611db28185611d51565b9350611dc2818560208601611d62565b611dcb81611d8c565b840191505092915050565b60006020820190508181036000830152611df08184611d9d565b905092915050565b6000819050919050565b611e0b81611df8565b8114611e1657600080fd5b50565b600081359050611e2881611e02565b92915050565b600060208284031215611e4457611e43611c81565b5b6000611e5284828501611e19565b91505092915050565b600073ffffffffffffffffffffffffffffffffffffffff82169050919050565b6000611e8682611e5b565b9050919050565b611e9681611e7b565b82525050565b6000602082019050611eb16000830184611e8d565b92915050565b611ec081611e7b565b8114611ecb57600080fd5b50565b600081359050611edd81611eb7565b92915050565b60008060408385031215611efa57611ef9611c81565b5b6000611f0885828601611ece565b9250506020611f1985828601611e19565b9150509250929050565b600080600060608486031215611f3c57611f3b611c81565b5b6000611f4a86828701611ece565b9350506020611f5b86828701611ece565b9250506040611f6c86828701611e19565b9150509250925092565b600060208284031215611f8c57611f8b611c81565b5b6000611f9a84828501611ece565b91505092915050565b611fac81611df8565b82525050565b6000602082019050611fc76000830184611fa3565b92915050565b600080fd5b600080fd5b7f4e487b7100000000000000000000000000000000000000000000000000000000600052604160045260246000fd5b61200f82611d8c565b810181811067ffffffffffffffff8211171561202e5761202d611fd7565b5b80604052505050565b6000612041611c77565b905061204d8282612006565b919050565b600067ffffffffffffffff82111561206d5761206c611fd7565b5b61207682611d8c565b9050602081019050919050565b82818337600083830152505050565b60006120a56120a084612052565b612037565b9050828152602081018484840111156120c1576120c0611fd2565b5b6120cc848285612083565b509392505050565b600082601f8301126120e9576120e8611fcd565b5b81356120f9848260208601612092565b91505092915050565b6000806000806080858703121561211c5761211b611c81565b5b600061212a87828801611ece565b945050602061213b87828801611ece565b935050604061214c87828801611e19565b925050606085013567ffffffffffffffff81111561216d5761216c611c86565b5b612179878288016120d4565b91505092959194509250565b61218e81611d10565b811461219957600080fd5b50565b6000813590506121ab81612185565b92915050565b600080604083850312156121c8576121c7611c81565b5b60006121d685828601611ece565b92505060206121e78582860161219c565b9150509250929050565b600067ffffffffffffffff82111561220c5761220b611fd7565b5b61221582611d8c565b9050602081019050919050565b6000612235612230846121f1565b612037565b90508281526020810184848401111561225157612250611fd2565b5b61225c848285612083565b509392505050565b600082601f83011261227957612278611fcd565b5b8135612289848260208601612222565b91505092915050565b600080600080608085870312156122ac576122ab611c81565b5b60006122ba87828801611ece565b94505060206122cb87828801611ece565b93505060406122dc87828801611e19565b925050606085013567ffffffffffffffff8111156122fd576122fc611c86565b5b61230987828801612264565b91505092959194509250565b600081519050919050565b600082825260208201905092915050565b6000819050602082019050919050565b61234a81611df8565b82525050565b600061235c8383612341565b60208301905092915050565b6000602082019050919050565b600061238082612315565b61238a8185612320565b935061239583612331565b8060005b838110156123c65781516123ad8882612350565b97506123b883612368565b925050600181019050612399565b5085935050505092915050565b600060208201905081810360008301526123ed8184612375565b905092915050565b6000806040838503121561240c5761240b611c81565b5b600061241a85828601611ece565b925050602061242b85828601611ece565b9150509250929050565b7f4e487b7100000000000000000000000000000000000000000000000000000000600052602260045260246000fd5b6000600282049050600182168061247c57607f821691505b60208210810361248f5761248e612435565b5b50919050565b7f4e6f6e2d7472616e7366657261626c6520746f6b656e00000000000000000000600082015250565b60006124cb601683611d51565b91506124d682612495565b602082019050919050565b600060208201905081810360008301526124fa816124be565b9050919050565b7f5342542063616e20626520697373756564206f6e6c79206f6e636520746f206160008201527f207573657220616e64207365727669636520636f6d62696e6174696f6e310000602082015250565b600061255d603e83611d51565b915061256882612501565b604082019050919050565b6000602082019050818103600083015261258c81612550565b9050919050565b7f557365722063616e277420616374206173206120636f6d70616e792100000000600082015250565b60006125c9601c83611d51565b91506125d482612593565b602082019050919050565b600060208201905081810360008301526125f8816125bc565b9050919050565b7f436f6d70616e792063616e277420616374206173206120757365722100000000600082015250565b6000612635601c83611d51565b9150612640826125ff565b602082019050919050565b6000602082019050818103600083015261266481612628565b9050919050565b600081905092915050565b600061268182611d46565b61268b818561266b565b935061269b818560208601611d62565b80840191505092915050565b60006126b38285612676565b91506126bf8284612676565b91508190509392505050565b7f4e487b7100000000000000000000000000000000000000000000000000000000600052603260045260246000fd5b7f4e487b7100000000000000000000000000000000000000000000000000000000600052601160045260246000fd5b600061273482611df8565b91507fffffffffffffffffffffffffffffffffffffffffffffffffffffffffffffffff8203612766576127656126fa565b5b600182019050919050565b60008160601b9050919050565b600061278982612771565b9050919050565b600061279b8261277e565b9050919050565b6127b36127ae82611e7b565b612790565b82525050565b6000819050919050565b6127d46127cf82611df8565b6127b9565b82525050565b60006127e682866127a2565b6014820191506127f682856127a2565b60148201915061280682846127c3565b602082019150819050949350505050565b60008190508160005260206000209050919050565b60006020601f8301049050919050565b600082821b905092915050565b6000600883026128797fffffffffffffffffffffffffffffffffffffffffffffffffffffffffffffffff8261283c565b612883868361283c565b95508019841693508086168417925050509392505050565b6000819050919050565b60006128c06128bb6128b684611df8565b61289b565b611df8565b9050919050565b6000819050919050565b6128da836128a5565b6128ee6128e6826128c7565b848454612849565b825550505050565b600090565b6129036128f6565b61290e8184846128d1565b505050565b5b81811015612932576129276000826128fb565b600181019050612914565b5050565b601f8211156129775761294881612817565b6129518461282c565b81016020851015612960578190505b61297461296c8561282c565b830182612913565b50505b505050565b600082821c905092915050565b600061299a6000198460080261297c565b1980831691505092915050565b60006129b38383612989565b9150826002028217905092915050565b6129cc82611d46565b67ffffffffffffffff8111156129e5576129e4611fd7565b5b6129ef8254612464565b6129fa828285612936565b600060209050601f831160018114612a2d5760008415612a1b578287015190505b612a2585826129a7565b865550612a8d565b601f198416612a3b86612817565b60005b82811015612a6357848901518255600182019150602085019450602081019050612a3e565b86831015612a805784890151612a7c601f891682612989565b8355505b6001600288020188555050505b505050505050565b600081519050919050565b600082825260208201905092915050565b6000612abc82612a95565b612ac68185612aa0565b9350612ad6818560208601611d62565b612adf81611d8c565b840191505092915050565b6000608082019050612aff6000830187611e8d565b612b0c6020830186611e8d565b612b196040830185611fa3565b8181036060830152612b2b8184612ab1565b905095945050505050565b600081519050612b4581611cb7565b92915050565b600060208284031215612b6157612b60611c81565b5b6000612b6f84828501612b36565b91505092915050565b7f4e487b7100000000000000000000000000000000000000000000000000000000600052601260045260246000fd5b6000604082019050612bbc6000830185611e8d565b612bc96020830184611fa3565b939250505056fea26469706673582212209128b4291029c80c7b99fd7ed83eede29147bec2627b977724f482c9fb85d2d764736f6c63430008140033",
  "linkReferences": {},
  "deployedLinkReferences": {}
}